:020000040800F2
:100000000000032039550008495400084B540008EB
:100010004D5400084F5400085154000800000000DF
:100020000000000000000000000000005354000821
:1000300055540008000000005754000859540008A7
:100040008955000889550008895500088955000818
:100050008955000889550008895500088955000808
:1000600089550008895500088955000889550008F8
:1000700089550008895500088955000889550008E8
:1000800089550008895500088955000889550008D8
:1000900089550008895500088955000889550008C8
:1000A00089550008895500088955000889550008B8
:1000B00089550008895500088955000889550008A8
:1000C0008955000889550008895500088955000898
:1000D0008955000889550008895500088955000888
:1000E0008955000889550008895500088955000878
:1000F0008955000889550008895500088955000868
:100100008955000889550008895500088955000857
:100110008955000889550008895500088955000847
:100120008955000889550008895500088955000837
:100130008955000889550008895500088955000827
:100140008955000889550008895500088955000817
:100150008955000889550008895500088955000807
:1001600089550008895500088955000889550008F7
:1001700089550008895500088955000800000000CD
:1001800089550008895500088955000889550008D7
:1001900089550008895500088955000889550008C7
:0C01A000895500088955000889550008A1
:1001B00010B5054C237833B9044B13B10448AFF3A1
:1001C00000800123237010BD940400200000000073
:1001D0002476000808B5034B1BB103490348AFF36D
:1001E000008008BD0000000098040020247600086C
:1001F00009B900207047C0F3C613C0F38232D31888
:100200005943C91DC908420DC90002F00302430C3D
:10021000D14003F00F03042B0BD0082B01BFC0F318
:10022000C612C0F38230821801EB0221C91DC80832
:100230007047C0F3C612C0F38230821801EB02117E
:10024000C91DC808704710B5044606F055FA204687
:1002500010BDDFF81404016849084900016001205D
:10026000DFF80814886088680028FCD1DFF80024D3
:100270000A600868DFF8FC13884200D0FEE7A1A0FE
:100280007047DFF8E4030168490849000160012074
:10029000DFF8D813886088680028FCD1DFF8D02305
:1002A0000A600868DFF8CC13884200D0FEE70FF23E
:1002B000DC3210687047DFF8B00301684908490074
:1002C00001600120DFF8A413886088680028FCD151
:1002D000DFF89C230A600868DFF89813884200D092
:1002E000FEE70FF2AC3210687047DFF87C0301685C
:1002F0004908490001600120DFF8701388608868B0
:100300000028FCD1DFF868230A600868DFF864136E
:10031000884200D0FEE70FF27C321068704720B1AF
:100320000168DFF85423914200D00020DFF8381331
:100330000A68520852000A600121DFF830239160F8
:1003400091680029FCD1DFF8283313601168DFF8C9
:100350002423914200D0FEE77047DFF81C130160B0
:10036000704708467047704720B10168DFF80823DE
:10037000914200D00020BC490A68520852000A602D
:100380000121BA4A916091680029FCD1B84B1360F1
:100390001168B84A914200D0FEE700281CBF0C301B
:1003A00000F08AB90FF200300068704700281CBFC7
:1003B0000C3000F086B9704770B5049D044605986E
:1003C000DBB22D0445EA036545EA00250FF2DC2087
:1003D0000668A54801684908490001600120A34951
:1003E000886088680028FCD1A14B0B600868A1498F
:1003F000884200D0FEE71CB90FF2B420006870BD3F
:100400009D491160226000F055F910B90FF2882063
:100410000BE09A498D4228BF0FF2802005D20FF2DF
:10042000802000F063F918B99EA0066800212160C1
:10043000304670BD28B101688F4A914208BF02461C
:1004400000D0002288490B685B085B000B6001212B
:10045000864B996099680029FCD1DFF814C2C3F873
:1004600000C01968834B994200D0FEE702B100201A
:1004700070472DE9F04381B00A4618B101687E4B00
:10048000994200D0002078490B685B085B000B6044
:100490000121764B996099680029FCD1744C1C604D
:1004A0001968744B994200D0FEE740B30AB9112293
:1004B00006E0D16909B9132202E0D16841B91222DC
:1004C00010210C3000F0FDF8002001B0BDE8F083F1
:1004D00078CA00F1140100F1240781E8780092E85D
:1004E000005387E8005303218160C26B3AB19168E1
:1004F00050608A4218BF002918BF0A46F7D101B0E0
:10050000BDE8F083000000002DE9F04F83B028B172
:100510000368594CA34208BF054600D00025524845
:1005200003685B085B0003600120504B986098688B
:100530000028FCD14E4C1C6018684E4B984200D0ED
:10054000FEE7002D48D0AB6803F00300032802D07B
:10055000302211213CE00F001CBFF868002835D084
:10056000788808B9212232E014000BD0E16851B339
:10057000618811B9212213212AE0884202D0212268
:10058000022125E0D8054CBF02200020590A01F0C5
:10059000010141EA0008686BA96B066808680090D1
:1005A00071683068FFF724FE019000984168006888
:1005B000FFF71EFEF968002C024614BFD4F80CB0F9
:1005C0004FF0000B0CE01722132101E0172212213B
:1005D00005F10C0000F075F8002003B0BDE8F08FC5
:1005E00018F0020014BFDFF89890DFF898905FEAE7
:1005F000C8734CBFDFF888A0DFF88CA07B882B8203
:1006000000276F8208B9B160F16044B15FEAC87039
:1006100005D4009BC3F808B00098C0F80CB0688AF5
:100620002B8A98421CD22C463546019E1746884696
:10063000A86832464146C847A860B044204600F04A
:10064000D7F8009881683A465846D04700EB070B28
:10065000608A218A401C608280B28842E8D32546A5
:10066000688A03B0BDE8F08F002000E0003002404F
:10067000C2A507F4CDB5E8B50001C0A10100010194
:100680004702000863030008670300080303000033
:100690000100000001010000301000000110000006
:1006A0000384048402100000101000000000000009
:1006B00010100000012070470146002208680A60FF
:1006C000704703785FEA036C04D141EA02210160BC
:1006D000012070470020704710B50446E168884744
:1006E000A068A04208BF002010BD000000B581B086
:1006F00060B10178032909D15FF0040263A106F01B
:1007000027F8401E8041C00F01B000BD002001B09D
:1007100000BD000042F21172811A012984BFC91E76
:100720000D2901D90F3945D1801A21D0401E21D081
:10073000801E21D0401E21D0401E21D0401E21D03D
:10074000401E21D0401E21D0401E21D0401E21D06D
:10075000401E21D0401E21D0401E21D0401E21D05D
:10076000401E21D0401E21D0801E21D012A07047F3
:1007700012A0704712A0704727A0704728A07047AA
:1007800010A0704710A0704727A070470FA07047B7
:1007900027A0704728A070472CA070472DA0704755
:1007A0000BA070472DA070472EA0704730A0704757
:1007B00034A0704700A0704700000000414444008E
:1007C000424E0000475255004C524E004E4C000025
:1007D000534D000042F21171401A012884BFC01E1F
:1007E0000D2801D90F3801D1012070470020704732
:1007F00030B5044681B0E06B58B12064256CE968DF
:1008000028468847A868A84208BF0020002820641E
:10081000F4D101B030BD0000434F4E5632440000C9
:1008200044454E53450000004C53544D0000000019
:100830004E4F524D000000004F5054494D495A450B
:10084000445F434F4E563244000000005045524D25
:1008500055544500504F4F4C0000000053504C4938
:100860005400000054494D455F44454C4159000037
:1008700054494D455F4449535452494255544544A7
:1008800000000000434F4E434154000003840484A1
:100890002DE9F04F81B00D9D139CDDF82C900E9E3C
:1008A0000A98DDF83CB0DDF840C0DDF844E0DDF842
:1008B00048802F1B09FB07FA371B07FB09F7009736
:1008C00088420CBF9FED860AB7EE000A05FB0CF5C7
:1008D00006FB09F706FB0C8606FB09F603EB86030D
:1008E0000C9EABEB0E0B04FB09F409FB05F5002E87
:1008F0000BFB07FB02EB85094ED00D46194632462D
:100900004FEA0003D3ED000ABEF1010F60EE800A4A
:100910004E4639DBDDF800C07046012C2CDB14F0AC
:1009200003080AD091ED001AD6ED001A361D091DF4
:10093000B8F1010841EE210AF4D1A70800F01C80AB
:1009400091ED002A96ED001AD1ED011AD6ED012A9B
:1009500042EE010A41EEA20A91ED022A96ED021A38
:10096000D1ED031AD6ED032A1036103142EE010AFA
:100970007F1E41EEA20AE3D1401E06EB8A0601EB80
:100980008C01CAD1CDF800C0C5ED000A2D1D1B1D7C
:10099000521E01EB8B01B5D101B0BDE8F08F000014
:1009A0002DE9F24F84B0149FDDF858B0119D1398D3
:1009B000159CDDF85CC0DDF83CA0109EDDF8489089
:1009C00009FB07BB114603EB8B0B0E9A049BA5EBAF
:1009D0000C0E001B9A420CBF9FED410AB7EE000AB5
:1009E0007D430AFB05F501EB8501002501EB8A0734
:1009F000B942B6FBFAF60AFB0EFEA9EB0C0800FBA7
:100A000009F0009768D20E920396039A002A5FD0ED
:100A1000049B0E9A029003EB8507039BCDF804100C
:100A200002EB8506D6ED000ADDF80490012C60EE9D
:100A3000800A41DB4FEA0402BCF1010F36DB1CF0F7
:100A400003010BD09BED001AD9ED001A491E41EEAF
:100A5000210A0BF1040B09EB8A09F3D15FEA9C0030
:100A600000F024809BED001AD9ED001A09EB8A01F1
:100A700041EE210ADBED011A91ED001A01EB8A012A
:100A800041EE810A9BED021AD1ED001A01EB8A01B9
:100A900041EE210ADBED031A91ED001A401E41EEF2
:100AA000810A0BF1100B01EB8A09DBD1521E09EB15
:100AB0008E090BEB880BBFD10298C7ED000A6D1CA5
:100AC0003F1D361D5B1E0BEB800BABD102980199CD
:100AD000009A091D914298D305B0BDE8F08F00003F
:100AE000000000002DE9F24F84B0DDF84CE0DDF8A5
:100AF00058C018981099129C159D0F9FAEEB0C0EC4
:100B00009246149AB1FBF2F91199CDF80C90091A9A
:100B100079431E46B7FBF2F304FB03FB0EFB0BFE0F
:100B2000DDF85CB0A7EB0309A4EB000804FB05B4F7
:100B30005C4306EB84040E9EDDF810B05E45119E0A
:100B40000CBF9FED3F0AB7EE000A75436F430AEBF7
:100B50008705002A08FB03F84FF0000A6CD00092CA
:100B6000039A002A62D00E9A049FCDF858C002EB77
:100B70008A06039ACDF808E007EB8A07CDF80450FF
:100B8000DDF858E0D6ED000A019DBEF1010F60EEE0
:100B9000800A3BDB012832DB4FEA000C05EB830BBC
:100BA0005D4527D294ED001AD5ED001A2D1D241DA8
:100BB0005D4541EE210A1DD294ED001AD5ED001AD3
:100BC0002D1D241D5D4541EE210A13D294ED001A1E
:100BD000D5ED001A2D1D241D5D4541EE210A09D2D7
:100BE00094ED001AD5ED001A2D1D241D5D4541EE32
:100BF000210AD7D3BCF1010C05EB8905CED1BEF19A
:100C0000010E05EB810504EB8804C3D1029DC7EDFD
:100C1000000A3F1D361D521E04EB85040AF1010A2D
:100C2000AED1DDF858C0DDF808E0019D009A521EF3
:100C300005EB8305009293D105B0BDE8F08F00006D
:100C4000000000002DE9F04F8DB0169C04B90C4651
:100C50001E9F1D9EDDF87080DDF880E01F9DDDF891
:100C600060C0DDF86490DDF868A0DDF86CB00B9032
:100C7000BF1B1798B8F1010FAEEB050E14D1CDF8DC
:100C800024E0089507970190CDF808C00696CDF8A6
:100C900014B0CDF810A0CDF80C9000940B98FFF78D
:100CA000F7FD0DB0BDE8F08F804514D1CDF824E0FC
:100CB000089507970190CDF808C00696CDF814B0B6
:100CC000CDF810A0CDF80C9000940B98FFF768FEBB
:100CD0000DB0BDE8F08FCDF828E009950897019098
:100CE000CDF808C00796CDF81880CDF814B0CDF82F
:100CF00010A0CDF80C9000940B98FFF7F3FE0DB008
:100D0000BDE8F08F70470000F0B40446049803EB90
:100D10008005203D08289FEDD90A2FD22035AB420F
:100D200024D2087893ED001A02EB8006181DD6ED48
:100D3000000AA84200EE810A18D24B7890ED001A02
:100D400002EB8306001DD6ED000AA84200EE810AE0
:100D50000CD28B7890ED001A02EB8306031DC91CA0
:100D6000D6ED000AAB4200EE810ADAD3D4ED000AD8
:100D700030EE800A84ED000AF0BC704701F00300F9
:100D80000328F3D8DFE800F00336414CEEE79D423C
:100D900080F0D5802035AB42E8D2087893ED001A78
:100DA00002EB8006181DD6ED000AA84200EE810A6B
:100DB000DCD24B7890ED001A02EB8306001DD6EDD5
:100DC000000AA84200EE810AD0D28B7890ED001A7A
:100DD00002EB8306031DC91CD6ED000AAB4200EEF0
:100DE000810ADAD3D4ED000A30EE800A84ED000ADD
:100DF000F0BC704711F8010B93ED001A02EB80066E
:100E00001B1DD6ED000A00EE810A11F8010B93EDCF
:100E1000001A02EB80061B1DD6ED000A00EE810AC7
:100E200011F8010B93ED001A02EB80061B1DD6EDA5
:100E3000000A9D4200EE810A4ED3CF7893ED004A1E
:100E400093ED013A93ED022A93ED031A02EB870624
:100E50008F78D6ED000A02EB87064F78D6ED001AA0
:100E600002EB87060F78D6ED002A02EB870603F126
:100E70001000D6ED003A0B7903EE840A02EE830AE5
:100E800001EE820A02EB830700EE810A4B79D7ED6F
:100E9000000A90ED004AD0ED013A90ED023AD0ED13
:100EA000032A02EB83078B7997ED001A02EB830785
:100EB000CB79D7ED001A02EB830700EE840A0831E4
:100EC00000F1100301EE230A97ED002A01EE830AD8
:100ED0009D4202EE220AB0D22035AB42BFF446AFAB
:100EE000087893ED001A02EB8006181DD6ED000A73
:100EF000A84200EE810ABFF439AF4B7890ED001A9A
:100F000002EB8306001DD6ED000AA84200EE810A1E
:100F1000BFF42CAF8B7890ED001A02EB8306031D13
:100F2000C91CD6ED000AAB4200EE810AD8D3D4ED3D
:100F3000000A30EE800A84ED000AF0BC7047CF78DA
:100F400093ED004A93ED013A93ED022A93ED031AD3
:100F500002EB87068F78D6ED000A02EB87064F7802
:100F6000D6ED001A02EB87060F78D6ED002A02EBC9
:100F7000870603F11000D6ED003A0B7903EE840AE0
:100F800002EE830A01EE820A02EB830700EE810A79
:100F90004B79D7ED000A90ED004AD0ED013A90ED83
:100FA000023AD0ED032A02EB83078B7997ED001A02
:100FB00002EB8307CB79D7ED001A02EB830700EE33
:100FC000840A083100F1100301EE230A97ED002A8C
:100FD00001EE830A9D4202EE220AB0D2DAE6000058
:100FE000F0B4049C65086D0003EB8505AB429FEDF2
:100FF000230A2FD211F8016B93ED002A93ED011A09
:1010000006F00F07360902EB860602EB8707D6EDDE
:10101000001AD7ED000A083301EE820AAB4200EE57
:10102000810A17D211F8016B93ED002A93ED011A92
:1010300006F00F07360902EB860602EB8707D6EDAE
:10104000001AD7ED000A083301EE820AAB4200EE27
:10105000810ACFD3E40709D5097893ED001A09096D
:1010600002EB8102D2ED000A00EE810AD0ED001AF7
:1010700031EE800A80ED000AF0BC704700000000ED
:101080002DE9F04F05469BB0686900680168426829
:1010900080680F68D2F800A0D0F800E04068BA6815
:1010A0000D920028DAF808300193DAF81010DAF817
:1010B0000C903C69D7F80C802B8C0C93AE8C0F965F
:1010C000EA6A2E8DDEF80C300E9392B2DEF808300C
:1010D00000933F68D7F808C0DEF80070D7F808E042
:1010E000AB691ABF006887680027DAF80000D0F8FB
:1010F00008A0E869002814BF0546DFF810575242DF
:1011000000290B926BD076421996CDF85890159421
:101110001091DDF838B00B9815990B9A169C199E12
:101120004042D8BF0020891A594528BF5946002C93
:1011300008FB02624BD00294CDF838B0019CDDF878
:1011400000901493CDF84CC0CDF848E0119718905A
:1011500017919346029F7042D8BF0020A8EB06016A
:10116000494528BF49460A910990CDF81090CDF81D
:101170000C80029458441799189A129B0891079270
:1011800014990E9A069105920D99119A0191009267
:101190000D9A1399504301EB800251460020FFF74E
:1011A00051FD224651465046A8470C9886197F1E8D
:1011B0000AEB840A8344CED10194CDF80090DDF887
:1011C00038B0149BDDF84CC0DDF848E0119F0B9956
:1011D0000F9A109C5118641E0B9110949BD11BB058
:1011E000BDE8F08F2DE9F04F0346B5B058690068AF
:1011F00001684268D1F800B017688068D0F800A094
:1012000044680BF1140191E864102DA880E8641083
:10121000DBF808000490B96803913869FA681B92FA
:10122000DBF810500D95DBF80C2002921D8C119507
:101230009A8C198D1091B3F82CC0D3F830E05D6B07
:10124000ADF804509E690C96DAF8081000919D6B79
:10125000DAF80C100F95DD6B1A951D6C19955D6C05
:101260001D953E6AD3F84880DD6C46430596002CF8
:10127000FE691896DBF80060B6681796DAF8006029
:10128000B6680B961ABF2468D4F808B04FF0000B6C
:10129000DC69002C12BF0E94DFF870450E941E6DB1
:1012A000009C16966D42029B3F68BDF80460A3EB5C
:1012B0000409109B119C994419FA8EF3D7F808E0A1
:1012C000059FB3FBF4F40D9B5B1A63449E19B6FBB8
:1012D000F2F3641C5B1C77440028159700F018811A
:1012E000C8F10008CDF8D0802A9314952490149B5F
:1012F000149D1A9E2A98002BD8BF00237519A84266
:1013000032BF0746149FF7191B98349D002800F040
:10131000F680DE1B3396CDF8ACC025942393289736
:10132000139522901398139B0F9C0028CCBF064660
:1013300000262598E318984232BF0346139BE31812
:101340003398F41A04FB00FA2398289CA042F04634
:101350004FF0000980F2C5802B9C239D2C925043B6
:10136000041B28982196451B1198279312941F95CA
:10137000129A0D9B129C279E5242D8BF00221B1B23
:101380008B423ABF0D9B1D1B0D46219C109B444375
:10139000E31A219CB44280F29980AD1A3295A6EBF3
:1013A000040C129D309E049C009FCDF898B07543AC
:1013B0003195CDF880A0039D029E11901C91CDF82F
:1013C000A4E01E929A46E346319ADDF8BCE0DAF1D9
:1013D0000001D8BF002101EB0A0C0EFB0C22A6EB8A
:1013E0000A00B84217980244269834BFA6EB0A03B5
:1013F0003B4608B94FEA0800DDF830E0DDF8C8C028
:101400005B1ABEF1010F12D108910993CDF81CC0EF
:101410001E9906911C9905910090049703960295D8
:10142000019441460B9B0020FFF732FA28E0A645C5
:1014300012D1099308910090CDF81CC0049703962F
:101440000295019400201C9B1E990593069141462C
:101450000B9BFFF7A5FA13E009910A930090CDF8D2
:1014600020C0049703960295019400201E990C9BBE
:10147000079106931C990B9B05914146FFF732FBA0
:101480000E9B2A464146404698472098DDF858C0B2
:1014900009F10109484518BF002000902B46299802
:1014A0002A464146E0471198DDF85480BBF1010B14
:1014B000824489D111981C99DDF898B0DDF8A4E038
:1014C000DDF880A00494039502960097129A2C9B55
:1014D0009A1812921F9A521E1F927FF449AF1190D0
:1014E0002C9A1398199B18181390229B18985B1E1E
:1014F000864422937FF416AFDDF8ACC0259C149B84
:101500001D9D249EEB18761E149324967FF4EFAE57
:1015100035B0BDE8F08F00002DE9F04F89B040698B
:101520000068016842688068D0F8008044680E68EE
:10153000D2F800E0DEF80C00DEF81020B568DEF826
:1015400008105043D8F8002013684FEA535AC3F3E9
:10155000C6190AF0030A5B0C002729FA0AF903F0FE
:101560000F03CDF80490042B366814BF082BD768FE
:10157000DEF80020D8F81830D2F80890B2680028B9
:1015800009EB810666D0CDF81C800594069104977E
:1015900000960390079801688868059909B10C685E
:1015A000A168049C002C009C10D1A14547D2A24602
:1015B0002E464F461C46904681460D46002D19BFCB
:1015C00055F8040B02900021029128E0A14536D283
:1015D000049C009F9846164682468B46BBF1000F3E
:1015E00019BF5BF8040B029000200290019900954E
:1015F000042933462246514602A803D1FFF7F0FCE6
:1016000002E000BFFFF780FB029849F8040BB945E0
:10161000C244E3D304944346324600970FE0334676
:101620004246494602A800F0F5FF029847F8040B2D
:101630005745A144C2D335462346B9464246009891
:10164000069900EB810403980094401E02EB85028A
:1016500003909FD109B0BDE8F08F00002DE9F04F55
:101660008AB015468B469A46149BD0F804C0696828
:1016700000915C680294B3F8009004885E8840880A
:10168000BBF80010BBF80220B5F800E06F88DBF86B
:1016900004300593049300254FFA8AF3002B0CBF06
:1016A000A0468046012F0CBF00230423BEF1010F8A
:1016B00004D1012F07D0C6F1000E05E0012F08BFAD
:1016C0004FF0010E00D0AE460FFA8EF701974FFA99
:1016D0008AF7002F0CBFA3468346CB4515D19DF951
:1016E0004CE0BEF1000F0CBF91468946B1450CD1CC
:1016F0004FFA8AF6002E0CBF8346A346BEF1000FB8
:101700000CBF0E461646B3456CD06FF002000AB00F
:10171000BDE8F08F059D9700089786000796CDF8E5
:1017200018C0ADF802404446DDF810C04FFA8AF602
:10173000DDF81880002E9FED341A0CBF0646BDF868
:101740000260B6B14FFA8AF7002F0CBF0427079F3B
:10175000BEF1000FD8ED001A95ED002AB8440CBF79
:10176000089F0427ED19761EB7B2002F01EE821AEA
:10177000E8D120EE011ADBED001A641E00EEA11A7A
:10178000A4B2BEF1000F89ED001A0EBF151B0D1B90
:101790005543002C09F104099B440CEB8505C5D188
:1017A000DDF80C90069DBDF80240CDF810C0099EF2
:1017B0004E4403964FFA8AF6002E0CBF4FEA800C77
:1017C0004FF0040CAC44019D0BEB850BBDF80050B1
:1017D0006E1EADF80060BDF8005055B900200AB08B
:1017E000BDE8F08FDDF800B00395ADF80080CDF8CE
:1017F000249003AE029D3688BEF1000F05EB8609EA
:101800000CBF9046884685E700000000050D0008E3
:10181000F0B58BB0416909680A68496809680D68C4
:10182000146853689268AD68CE680F690995ADF881
:101830002070ADF822602568E668AD682469ADF8CF
:101840001840ADF81A6007951C68DD68A4681B692C
:10185000ADF81030ADF8125005941368D4689B6849
:101860001269ADF80820ADF80A4008AA0393019266
:1018700002AA90F92110009104A990F92030D0ED2E
:10188000070A90ED060A06A8FFF7E8FE0BB0F0BDC8
:101890002DE9F0410F4614462DED028B022C064631
:1018A00097ED008ADFEDC38A3DD3611E3A1D11F02A
:1018B00003000CD092ED000AB4EE480AF1EE10FAE3
:1018C00058BFB0EE408A401E02F10402F2D18908EE
:1018D00000F02B8092ED000AB4EE480AF1EE10FA07
:1018E00058BFB0EE408A92ED010AB4EE480AF1EE1C
:1018F00010FA58BFB0EE408A92ED020AB4EE480AE0
:10190000F1EE10FA58BFB0EE408A92ED030AB4EE41
:10191000480AF1EE10FA58BFB0EE408A491E02F1B3
:101920001002D7D101E0002C40D0B0464FEA0405A8
:1019300097ED000A30EE480A03F080FE3F1D88ED67
:10194000000A6D1E78EE808A08F10408F0D1B7EE27
:10195000000A14F0030080EE280A09D0D6ED000A30
:1019600060EE800AC6ED000A401E06F10406F5D1BD
:10197000A4081BD0D6ED000A60EE800AC6ED000A6E
:10198000641E96ED011AD6ED020A21EE001A86EDCC
:10199000011A60EE800A96ED031AC6ED020A21EEE6
:1019A000001A86ED031A06F11006E3D1BDEC028B96
:1019B000BDE8F0812DE9F04381B00C4604EB8209CB
:1019C000089E099F4C4580461D460AD22A4621465C
:1019D0004046FFF75DFF04EB86044C4508EB8708A3
:1019E000F4D301B0BDE8F08370B50D4605EB820677
:1019F000B542044680F00A8095ED000A03F0C6FD6A
:101A000084ED000A241D2D1DB542F5D370BD0000E4
:101A100070B50D4605EB8206B542044680F0148091
:101A200095ED000AB1EE400A03F008FEF7EE000A59
:101A300070EE200AB7EE000A80EE200A84ED000A5C
:101A4000241D2D1DB542EBD370BD000001EB8202B9
:101A5000914216D24FF0FF3391ED000AB5EE400AE5
:101A6000F1EE10FACCBF9FEDC60A00EE103A091D48
:101A70008446B8EEC00A91420CF104008CED000AD5
:101A8000EAD3704701EB8202914216D2034691EDF0
:101A9000001A181DB4EE410AF1EE10FA58BFB0EE6C
:101AA000401AB4EE601AF1EE10FA58BFB0EE601AA8
:101AB000091D914283ED001AE8D3704701EB8202C1
:101AC00091420FD2034691ED000A181DB5EE400A6F
:101AD000F1EE10FAD8BF9FED370A091D914283ED50
:101AE000000AEFD37047000001EB820291421AD244
:101AF000B1EE080A0346D1ED000A181DF5EE400AC2
:101B0000F1EE10FA08DDF4EE400AF1EE10FA58BFDB
:101B1000F0EE400A02E000BFDFED260A091D914207
:101B2000C3ED000AE6D37047F0B581B00D4605EB72
:101B300082062DED048BB5420446F0EE408AB0EEED
:101B4000608A32D2274695ED009A3C1DB5EE409A48
:101B5000F1EE10FA4CBFDFED179AF0EE499AB0EEB5
:101B6000490A03F06BFDFFEE000A30EE200A20EE7A
:101B7000280AB5EE400AF1EE10FA05DD9FED0D1AC8
:101B800079EE819A0AE000BFB0EE490A03F056FDF3
:101B9000FFEE000A30EE200A40EE289A2D1D28EEB6
:101BA000290AB54287ED000ACCD3BDEC048B01B005
:101BB000F0BD00000000000001EB8303994220D239
:101BC00091ED000A92ED001AB5EE400AF1EE10FA1E
:101BD0004CBFDFEDA50AF0EE400AB1EE400AB5EECB
:101BE000400AF1EE10FA48BF9FED9F0A091D121D31
:101BF000844641EE400A99420CF10400CCED000A03
:101C0000DED37047406903681968D1F800C0DCF87A
:101C10000420DCF80800DCF80C104243DCF810006B
:101C2000DCF800C04A4359680B684243DCF80800FE
:101C3000D3F800C0DCF8081000EB820290420FD20B
:101C40000B4690ED000A191DB5EE400AF1EE10FAB0
:101C5000D8BF9FED850A001D904283ED000AEFD3A7
:101C600070470000406903681968D1F800C0DCF8CB
:101C70000420DCF80800DCF80C104243DCF810000B
:101C8000DCF800C04A4359680B684243DCF808009E
:101C9000D3F800C0DCF8081000EB820290421AD2A0
:101CA000B1EE080A0B46D0ED000A191DF5EE400A08
:101CB000F1EE10FA08DDF4EE400AF1EE10FA58BF2A
:101CC000F0EE400A02E000BFDFED670A001D90421F
:101CD000C3ED000AE6D37047F0B581B02DED048B5B
:101CE000416990ED078A0D68D0ED068A2A6814686C
:101CF00020686368A168E2684B432169846868686A
:101D000053434B4301680A68956804EB8306B44269
:101D100031D22F4694ED009A3D1DB5EE409AF1EE7A
:101D200010FA4CBFDFED509AF0EE499AB0EE490A36
:101D300003F084FCFFEE000A30EE200A20EE280AB1
:101D4000B5EE400AF1EE10FA04DD9FED471A79EE88
:101D5000819A09E0B0EE490A03F070FCFFEE000A38
:101D600030EE200A40EE289A241D28EE290AB442BB
:101D700087ED000ACDD3BDEC048B01B0F0BD0000AF
:101D80000100000030B441690C68226815686B6876
:101D9000A968EA6880694B4329692D6853436268E2
:101DA00014684B43A96825680468AA68A06801EB19
:101DB000830399421FD2144691ED000A221DB5EE0D
:101DC000400AF1EE10FA4CBFDFED270AF0EE400AB0
:101DD000B1EE400AB5EE400AF1EE10FA48BF9FEDB1
:101DE000220A90ED001A091D001D41EE400A994299
:101DF000C4ED000ADFD330BC7047000040690368BF
:101E00001968D1F800C0DCF80420DCF80800DCF820
:101E10000C104243DCF81000DCF800C04A4359685B
:101E20000B684243DCF80800D3F800C0DCF8081067
:101E300000EB8202904216D24FF0FF3390ED000A81
:101E4000B5EE400AF1EE10FACCBF9FED080A00EEA5
:101E5000103A001D8C46B8EEC00A90420CF1040105
:101E60008CED000AEAD3704700000000010000007A
:101E700030B4416990ED070A0C68D0ED060A22687B
:101E800015686B68A968EA68286880684B43296907
:101E900053434B4361680A681468A16800EB8302EE
:101EA000904216D20B4690ED001A191DF4EE410A2D
:101EB000F1EE10FA58BFB0EE601AB4EE401AF1EE2F
:101EC00010FA58BFB0EE401A001D904283ED001A80
:101ED000E8D330BC7047000070B5406903681968EA
:101EE0000C686268A068E168424320692468A468BD
:101EF0004A434243586801680B689D6804EB8206B8
:101F0000B44213D294ED000AB1EE400A03F096FBFE
:101F1000F7EE000A70EE200AB7EE000A80EE200A03
:101F200085ED000A2D1D241DB442EBD370BD0000C9
:101F300070B54069036819680C686268A068E16858
:101F4000424320692468A4684A43424358680168B0
:101F50000B689D6804EB8206B44209D294ED000A36
:101F600003F014FB85ED000A2D1D241DB442F5D3AA
:101F700070BD30B583B04069046821680D68AA68F7
:101F80000192009213466868E968424328692D6807
:101F90004A43424360680468A9682568A868FFF757
:101FA00009FD03B030BD000070B401EB8204A14212
:101FB00057D2002B51D013F003020D46064611D024
:101FC00096ED000AD5ED000AF4EE400AF1EE10FAA3
:101FD00058BFB0EE600A86ED000A521E361D2D1D58
:101FE000002AEDD19A0838D0D5ED000AD6ED001AB6
:101FF000F4EE610AF1EE10FA48BFF0EE610AC6EDA8
:10200000000AD5ED010AD6ED011A96ED020AF4EEAA
:10201000610AF1EE10FA48BFF0EE610AC6ED010A5E
:1020200095ED021AD6ED031AB4EE401AF1EE10FA4D
:1020300048BFB0EE401A86ED021AD5ED030AF4EE61
:10204000610AF1EE10FA58BFF0EE601AC6ED031AFD
:10205000521E10361035002AC6D101EB8301A14271
:10206000A7D370BC7047000070B401EB8204A1429A
:102070004FD2002B49D013F003020D4606460ED076
:1020800095ED000A88421CBFD6ED000A30EE800AAA
:1020900086ED000A521E361D2D1D002AF0D19A0829
:1020A00033D08842D5ED001A0CD1C6ED001A95ED5B
:1020B000010A86ED010AD5ED021AC6ED021AD5ED28
:1020C000031A1BE0D6ED000A30EEA10A86ED000AE5
:1020D00096ED011A95ED010AD6ED021A31EE000ACD
:1020E00086ED010AD5ED020A31EEA00A86ED020A5C
:1020F00096ED030A95ED031A70EE011AC6ED031A68
:10210000521E10361035002ACBD101EB8301A142BB
:10211000AFD30399A1B300EE101AB8EE400AF7EE60
:10212000000A80EE800A5BB313F0030100F00A801E
:10213000D0ED000A60EE800AC0ED000A491E00F1F1
:102140000400F5D19B081BD0D0ED000A60EE800A98
:10215000C0ED000A5B1E90ED011AD0ED020A21EEDF
:10216000001A80ED011A60EE800A90ED031AC0EDAE
:10217000020A21EE001A80ED031A00F11000E3D1EB
:1021800070BC70472DE9F04F03468EB05869006867
:10219000016840680C68076821693D690991FA681F
:1021A0000892D4F80C80A1689A69D86907905E6A91
:1021B000186A0D963F682468D7F808E0DF6A9E6ABF
:1021C000A4687F42002D009700F0D98001957642E7
:1021D0000C9601FB08F50B95009D009B009F6D423E
:1021E000099DCCBF0026009EEB1A079DAB4288BF1D
:1021F0002B46DF19089B0C9D002B00F0B78008FBD5
:1022000006FACDF828A0CDF80C800292069005962B
:1022100004976842039F029ADDF82C80CCBF00200F
:1022200028467F1B974288BF17460A9A7F193F1A94
:10223000801848434F4304EB800C11B311F00300A6
:102240007246664600F0068056F8049B42F8049BEE
:10225000401EF9D1880814D096ED000A82ED000ADC
:10226000401ED6ED010AC2ED010A96ED020A82ED8A
:10227000020AD6ED030AC2ED030A10321036002816
:10228000EAD10598049A904266DA1046059A821AB5
:10229000E2460AEB870BDA455AD2002954D011F0F6
:1022A00003005646F14612D099ED000AD6ED000A19
:1022B000F4EE400AF1EE10FA58BFB0EE600A401E8C
:1022C000361D89ED000A002809F10409ECD18808BF
:1022D00000F03A80D6ED000AD9ED001AF4EE610A5A
:1022E000F1EE10FA48BFF0EE610AC9ED000AD6ED32
:1022F000010AD9ED011A99ED020AF4EE610AF1EE34
:1023000010FA48BFF0EE610AC9ED010A96ED021A13
:10231000D9ED031AB4EE401AF1EE10FA48BFB0EE50
:10232000401A89ED021AD6ED030AF4EE610AF1EEC5
:1023300010FA58BFF0EE601A401E1036C9ED031AAD
:10234000002809F11009C5D10AEB810ADA45A4D3A6
:10235000521E0CEB880C9BD1069845195B1E0EEBA8
:10236000810E7FF456AFDDF80C80029A009D0D9B24
:102370005D190095019D6D1E01957FF42DAF0EB086
:10238000BDE8F08F2DE9F04F94B0416909680A6803
:10239000496815680E682A6933690C92F4680B94D1
:1023A000EA68A968D0F81880C4690A94D0F820C0F7
:1023B000476A13972D68876A3468C06AD5F808E0C1
:1023C000D4F808904042002B019000F020817F4219
:1023D00001FB02F403931297119401980C9B019E48
:1023E000129C40420198CCBF0027019F181A0A9BFB
:1023F000984288BF184686190B98002800F0FE8086
:10240000054602FB07F010900592B81B0F90CDF81F
:102410001080CDF824C0CDF820E0079706960094F0
:1024200002950098059ADDF800E0119C4042009862
:10243000CCBF4FF0000CDDF800C0101A049A904297
:1024400088BF104686440F98109AACEB0E054543A2
:10245000089862444A43AEEB0C0600EB82074E43F9
:10246000002289B111F003004B4603D0401E43F80F
:10247000042BFBD1880807D01A605A609A60DA6092
:10248000401E03F11003F7D10798069B984280F293
:10249000A3801B1AAEEB0C000D900E9494460D9881
:1024A00084446545BE460CBF2C4600240EEB8608CE
:1024B000C6454ED20022002947D011F00300F24653
:1024C000CB4610D09AED000AF1451CBFDBED000AA7
:1024D00030EE800A521C8BED000A401E0BF1040BFB
:1024E0000AF1040AEED1880800F02F800EEB820A70
:1024F00009EB8202DAED001AF1451CBF92ED000AE9
:1025000070EE211AC2ED001ADAED011A1CBFD2EDED
:10251000010A70EEA11AC2ED011A9AED021A1CBF4F
:1025200092ED020A30EE011A82ED021ADAED031A78
:102530001CBFD2ED030A70EEA11AC2ED031A401EB1
:10254000103200280AF1100AD4D10EEB810EC645D4
:10255000B0D3002C3AD000EE104AB8EE400AF7EEA5
:10256000000A80EE800A002281B311F003004C467D
:1025700000F00B80D4ED000A60EE800A521CC4ED1E
:10258000000A401E04F10404F4D1880800F01E8003
:1025900009EB8202D2ED000A60EE800AC2ED000A69
:1025A000401E92ED011AD2ED020A21EE001A82EDD0
:1025B000011A60EE800A92ED031AC2ED020A21EEC2
:1025C000001A82ED031A02F11002E3D10E985B1E8D
:1025D00007EB80077FF463AF0098099A101800900A
:1025E00009EB81090298401E02907FF41AAF059A08
:1025F000DDF81080DDF824C0DDF820E0019C139B9D
:102600001C190194039C641E03947FF4E6AE14B07D
:10261000BDE8F08F30B50446084681B011461A4631
:10262000002500956B4600F05BFE94ED000ADDEDA1
:10263000000A70EE200AC4ED000A01B030BD0000AF
:10264000F0EE400AF5EE400AF1EE10FA9FED280A8E
:1026500001DBB1EEE00A704702F0F0BF03F06CB8A6
:1026600002F094BFB5EE400AF1EE10FAD8BF9FED2C
:10267000200A7047B5EE400AF1EE10FAD8BF20EEFE
:10268000200A704700B581B0B1EE400A02F0D6FFD3
:10269000F7EE000A30EE200AB7EE001A81EE000ACB
:1026A00001B000BDF0EE400A9FED121AB6EE000A2E
:1026B00000EE810ADFED100AB4EE600AF1EE10FAC6
:1026C00007DAB5EE400AF1EE10FA04D59FED080ADC
:1026D0007047B7EE000A7047B5EE400AF1EE10FA07
:1026E000CCBF9FED060A9FED060AB8EEC00A704700
:1026F00000000000CDCC4C3E0100803F01000000F6
:10270000FFFFFFFF81F0004102E000BF83F00043C4
:1027100030B54FEA41044FEA430594EA050F08BF7C
:1027200090EA020F1FBF54EA000C55EA020C7FEA40
:10273000645C7FEA655C00F0E2804FEA5454D4EBBD
:102740005555B8BF6D420CDD2C4480EA020281EA87
:10275000030382EA000083EA010180EA020281EABF
:102760000303362D88BF30BD11F0004F4FEA013111
:102770004FF4801C4CEA113102D0404261EB410120
:1027800013F0004F4FEA03334CEA133302D05242A6
:1027900063EB430394EA050F00F0A780A4F1010462
:1027A000D5F1200E0DDB02FA0EFC22FA05F280189C
:1027B00041F1000103FA0EF2801843FA05F3594182
:1027C0000EE0A5F120050EF1200E012A03FA0EFC01
:1027D00028BF4CF0020C43FA05F3C01851EBE3712B
:1027E00001F0004507D54FF0000EDCF1000C7EEB48
:1027F00000006EEB0101B1F5801F1BD3B1F5001F86
:102800000CD349085FEA30004FEA3C0C04F10104A4
:102810004FEA445212F5800F80F09A80BCF1004FCD
:1028200008BF5FEA500C50F1000041EB045141EA4F
:10283000050130BD5FEA4C0C404141EB010111F450
:10284000801FA4F10104E9D191F0000F04BF0146FB
:102850000020B1FA81F308BF2033A3F10B03B3F1D9
:1028600020020CDA0C3208DD02F1140CC2F10C0269
:1028700001FA0CF021FA02F10CE002F11402D8BFC7
:10288000C2F1200C01FA02F120FA0CFCDCBF41EA93
:102890000C019040E41AA2BF01EB0451294330BD62
:1028A0006FEA04041F3C1CDA0C340EDC04F114043F
:1028B000C4F1200220FA04F001FA02F340EA030016
:1028C00021FA04F345EA030130BDC4F10C04C4F15C
:1028D000200220FA02F001FA04F340EA030029463C
:1028E00030BD21FA04F0294630BD94F0000F83F486
:1028F000801306BF81F480110134013D4EE77FEA69
:10290000645C18BF7FEA655C29D094EA050F08BFB4
:1029100090EA020F05D054EA000C04BF1946104695
:1029200030BD91EA030F1EBF0021002030BD5FEAD9
:10293000545C05D14000494128BF41F0004130BD01
:1029400014F580043CBF01F5801130BD01F0004555
:1029500045F0FE4141F470014FF0000030BD7FEAC8
:10296000645C1ABF194610467FEA655C1CBF0B46C3
:10297000024650EA013406BF52EA033591EA030FDA
:1029800041F4002130BD00BF90F0000F04BF0021D2
:10299000704730B54FF4806404F132044FF0000505
:1029A0004FF0000150E700BF90F0000F04BF00217E
:1029B000704730B54FF4806404F1320410F00045E4
:1029C00048BF40424FF000013EE700BF42004FEADF
:1029D000E2014FEA31014FEA02701FBF12F07F435C
:1029E00093F07F4F81F06051704732F07F4208BF13
:1029F000704793F07F4F04BF41F40021704730B51A
:102A00004FF4607401F0004521F000411CE700BF65
:102A100050EA010208BF704730B54FF000050AE0E8
:102A200050EA010208BF704730B511F0004502D5E9
:102A3000404261EB41014FF4806404F132045FEAEB
:102A4000915C3FF4D8AE4FF003025FEADC0C18BF94
:102A500003325FEADC0C18BF033202EBDC02C2F186
:102A6000200300FA03FC20FA02F001FA03FE40EA18
:102A70000E0021FA02F11444BDE600BF70B54FF01C
:102A8000FF0C4CF4E06C1CEA11541DBF1CEA1355FA
:102A900094EA0C0F95EA0C0F00F0DEF82C4481EA62
:102AA000030621EA4C5123EA4C5350EA013518BF82
:102AB00052EA033541F4801143F4801338D0A0FB6F
:102AC00002CE4FF00005E1FB02E506F00042E0FB1C
:102AD00003E54FF00006E1FB03569CF0000F18BF22
:102AE0004EF0010EA4F1FF04B6F5007F64F54074CA
:102AF00004D25FEA4E0E6D4146EB060642EAC6215D
:102B000041EA55514FEAC52040EA5E504FEACE2EC9
:102B1000B4F1FD0C88BFBCF5E06F1ED8BEF1004FCC
:102B200008BF5FEA500E50F1000041EB045170BD48
:102B300006F0004646EA010140EA020081EA03018C
:102B4000B4EB5C04C2BFD4EB0C0541EA045170BD88
:102B500041F480114FF0000E013C00F3AB8014F102
:102B6000360FDEBF002001F0004170BDC4F100044B
:102B7000203C35DA0C341BDC04F11404C4F12005CC
:102B800000FA05F320FA04F001FA05F240EA020027
:102B900001F0004221F0004110EBD37021FA04F65D
:102BA00042EB06015EEA430E08BF20EAD37070BD17
:102BB000C4F10C04C4F1200500FA04F320FA05F076
:102BC00001FA04F240EA020001F0004110EBD37078
:102BD00041F100015EEA430E08BF20EAD37070BDE8
:102BE000C4F1200500FA05F24EEA020E20FA04F3C1
:102BF00001FA05F243EA020321FA04F001F0004170
:102C000021FA04F220EA020000EBD3705EEA430EE0
:102C100008BF20EAD37070BD94F0000F0FD101F00F
:102C20000046400041EB010111F4801F08BF013C48
:102C3000F7D041EA060195F0000F18BF704703F086
:102C40000046520043EB030313F4801F08BF013D0D
:102C5000F7D043EA0603704794EA0C0F0CEA1355C9
:102C600018BF95EA0C0F0CD050EA410618BF52EA83
:102C70004306D1D181EA030101F000414FF0000089
:102C800070BD50EA410606BF1046194652EA430697
:102C900019D094EA0C0F02D150EA013613D195EA0B
:102CA0000C0F05D152EA03361CBF104619460AD153
:102CB00081EA030101F0004141F0FE4141F470015D
:102CC0004FF0000070BD41F0FE4141F4780170BD4D
:102CD00070B54FF0FF0C4CF4E06C1CEA11541DBFB2
:102CE0001CEA135594EA0C0F95EA0C0F00F0A7F8B4
:102CF000A4EB050481EA030E52EA03354FEA0131E1
:102D000000F088804FEA03334FF0805545EA1313F3
:102D100043EA12634FEA022245EA111545EA1065BB
:102D20004FEA00260EF000419D4208BF964244F152
:102D3000FD0404F5407402D25B084FEA3202B61A71
:102D400065EB03055B084FEA32024FF480104FF445
:102D5000002CB6EB020E75EB030E22BFB61A7546B9
:102D600040EA0C005B084FEA3202B6EB020E75EB4C
:102D7000030E22BFB61A754640EA5C005B084FEAB4
:102D80003202B6EB020E75EB030E22BFB61A754681
:102D900040EA9C005B084FEA3202B6EB020E75EB8C
:102DA000030E22BFB61A754640EADC0055EA060E4D
:102DB00018D04FEA051545EA16754FEA06164FEA90
:102DC000C30343EA52734FEAC2025FEA1C1CC0D13C
:102DD00011F4801F0BD141EA00014FF000004FF0C9
:102DE000004CB6E711F4801F04BF01430020B4F18A
:102DF000FD0C88BFBCF5E06F3FF6AFAEB5EB030C42
:102E000004BFB6EB020C5FEA500C50F1000041EB3E
:102E1000045170BD0EF0004E4EEA113114EB5C040B
:102E2000C2BFD4EB0C0541EA045170BD41F48011DE
:102E30004FF0000E013C90E645EA060E8DE60CEAE6
:102E4000135594EA0C0F08BF95EA0C0F3FF43BAF03
:102E500094EA0C0F0AD150EA01347FF434AF95EABA
:102E60000C0F7FF425AF104619462CE795EA0C0F9E
:102E700006D152EA03353FF4FDAE1046194622E76B
:102E800050EA410618BF52EA43067FF4C5AE50EA45
:102E900041047FF40DAF52EA43057FF4EBAE12E735
:102EA0004FEA4102B2F1E04324BFB3F5001CDCF16C
:102EB000FE5C0DD901F0004C4FEAC0024CEA5070A4
:102EC000B2F1004F40EB830008BF20F001007047D3
:102ED00011F0804F21D113F13872BCBF01F00040D6
:102EE000704741F480114FEA5252C2F11802C2F108
:102EF000200C10FA0CF320FA02F018BF40F0010089
:102F00004FEAC1234FEAD32303FA0CFC40EA0C003A
:102F100023FA02F34FEA4303CCE77FEA625307D177
:102F200050EA01331EBF4FF0FE4040F440007047AE
:102F300001F0004040F0FE4040F40000704700BF48
:102F400053B94AB9002908BF00281CBF4FF0FF3110
:102F50004FF0FF3000F072B9ADF1080C6DE904CE0E
:102F600000F006F8DDF804E0DDE9022304B0704764
:102F70002DE9F047089E04468846002B4BD18A4233
:102F8000154667D9B2FA82F24AB1C2F1200701FAB6
:102F900002F320FA07F7954047EA030894404FEA06
:102FA000154E230CB8FBFEF71FFA85FC0EFB1788A5
:102FB00043EA084307FB0CF1994209D9EB1807F1E2
:102FC000FF3080F01B81994240F21881023F2B4470
:102FD0005B1AA4B2B3FBFEF00EFB103344EA0344C9
:102FE00000FB0CFCA44509D92C1900F1FF3380F03B
:102FF0000781A44540F2048102382C4440EA07408E
:10300000A4EB0C0400271EB1D4400023C6E9004302
:103010003946BDE8F0878B4209D9002E00F0EB80DD
:103020000027C6E9000138463946BDE8F087B3FA03
:1030300083F7002F47D18B4202D3824200F2FA80FD
:10304000841A61EB030301209846002EE0D0C6E904
:103050000048DDE702B9FFDEB2FA82F2002A40F052
:103060008F80491B4FEA154E1FFA85F80127B1FBE7
:10307000FEFC230C0EFB1C1143EA014308FB0CF180
:10308000994207D9EB180CF1FF3002D2994200F2B5
:10309000CD808446591AA3B2B1FBFEF00EFB10148A
:1030A00043EA044408FB00F8A04507D92C1900F1B5
:1030B000FF3302D2A04500F2B6801846A4EB080404
:1030C00040EA0C409FE7C7F1200CBB4022FA0CFEFF
:1030D0004EEA030E01FA07F420FA0CF521FA0CF37C
:1030E0004FEA1E482543B3FBF8F92C0C08FB1933B3
:1030F0001FFA8EFA44EA034309FB0AF49C4202FADF
:1031000007F200FA07F10BD91EEB030309F1FF30B8
:1031100080F087809C4240F28480A9F102097344C8
:103120001B1BADB2B3FBF8F008FB103345EA0344B8
:1031300000FB0AFAA24508D91EEB040400F1FF3394
:103140006BD2A24569D90238744440EA0940A0FB19
:103150000289A4EB0A044C45C2464B4654D351D0D5
:10316000002E69D0B1EB0A0564EB030404FA0CFCF1
:10317000FD40FC404CEA0505C6E90054002747E73E
:10318000C2F1200320FA03F7954001FA02F021FA78
:1031900003F34FEA154E3843010CB3FBFEF71FFA59
:1031A00085F80EFB173341EA034107FB08F38B4216
:1031B00004FA02F407D9691807F1FF3C2FD28B42B9
:1031C0002DD9023F2944CB1A81B2B3FBFEF00EFB8E
:1031D000103341EA034100FB08F38B4207D9691819
:1031E00000F1FF3C17D28B4215D902382944C91A85
:1031F00040EA07473BE73746304609E70746E7E638
:103200001846FBE64145ABD2B8EB020A69EB0E0269
:1032100001381346A4E76046E9E7184695E7674694
:10322000D1E781467CE702382C4447E7ACF1020C39
:103230002B442FE7384608E73746E9E6704700BFDA
:1032400001F0FF01102A2BDB10F0070F08D010F857
:10325000013B013A8B422DD010F0070F42B3F6D15B
:10326000F0B441EA012141EA014122F007047FF074
:1032700000070023F0E80256083C85EA010586EACB
:10328000010685FA47F5A3FA87F586FA47F6A5FA07
:1032900087F68EB9EED1F0BC01F0FF0102F0070213
:1032A00032B110F8013B013A83EA010313B1F8D1BE
:1032B0000020704701387047002D06BF354603389F
:1032C000073815F0010F07D1013015F4807F02BFD8
:1032D000013015F4C03F0130F0BC0138704700BF29
:1032E00010B49408DFED1E7A22E090ED007AD1ED63
:1032F000006A27EE267A77EE877A90ED017AD1ED93
:10330000016A27EE267A77EE877A90ED027AD1ED80
:10331000026A27EE267A77EE877A90ED037AD1ED6E
:10332000036A27EE267A77EE877A013C1031103057
:10333000002CDAD102F003020AE090ED007AD1ED20
:10334000006A27EE267A77EE877A013A0431043054
:10335000002AF2D1C3ED007A5DF8044B704700BF3C
:103360000000000010B504460E4B18784FF47A7335
:10337000B3FBF0F30C4A1068B0FBF3F000F09CF8DC
:1033800068B90F2C01D901200AE0002221464FF034
:10339000FF3000F05DF8034B5C60002000E001208E
:1033A00010BD00BF000000202804002008B50B4B12
:1033B0001A6842F400721A601A6842F480621A6055
:1033C0001A6842F480721A60032000F02FF800207F
:1033D000FFF7C8FF01F090FF002008BD003C02404D
:1033E000034A1168034B1B780B441360704700BFFE
:1033F000100F002000000020014B1868704700BF2C
:10340000100F002038B50446FFF7F6FF0546B4F16B
:10341000FF3F02D0044B1B781C44FFF7EDFF401B1D
:10342000A042FAD338BD00BF00000020074AD3688D
:1034300023F4E0631B041B0C000200F4E06018435B
:1034400040F0BF6040F40030D060704700ED00E015
:1034500030B4174BDB68C3F30223C3F10704042C19
:1034600028BF04241D1D062D18D9033B4FF0FF353E
:1034700005FA04F421EA0401994005FA03F322EA6B
:103480000303194300280BDB0901C9B200F16040B6
:1034900000F5614080F8001330BC70470023E5E779
:1034A00000F00F000901C9B2024B1954F4E700BF44
:1034B00000ED00E014ED00E00138B0F1807F0AD2A9
:1034C000064B5860064AF02182F8231000209860CD
:1034D00007221A6070470120704700BF10E000E02B
:1034E00000ED00E068B110B5044643792BB102232A
:1034F000637101236371002010BD037101F018FF97
:10350000F5E701207047000000230F2B00F2E38055
:10351000F0B482B039E0092200E00022B2403A4320
:1035200002346D4E46F824206C4A1468EA4302EADD
:1035300004064F6817F4803F01D045EA0406674C43
:103540002660646802EA04064F6817F4003F01D061
:1035500045EA0406614C6660A46802EA04064F6806
:1035600017F4801F01D045EA04065C4CA660E468AD
:1035700022404E6816F4001F01D045EA0402574C61
:10358000E26001330F2B00F2A38001229A400C6805
:1035900004EA0205AA42F4D14C68022C01D0122C94
:1035A00010D1DE08083650F826C003F00704A70043
:1035B0000F24BC402CEA040C0C69BC4044EA0C0407
:1035C00040F8264004685F000326BE40F64306EA42
:1035D000040C4C6804F00304BC4044EA0C0404608E
:1035E0004C6804F1FF3CBCF1010F03D9112C01D050
:1035F000122C10D1846806EA040CCC68BC4044EA62
:103600000C048460446824EA02024C68C4F3001489
:103610009C4014434460C26816408A68BA403243F2
:10362000C2604A6812F0805FABD0002201922C4A3F
:10363000546C44F480445464526C02F4804201920D
:10364000019A9C08A61C244A52F8267003F0030233
:1036500096000F22B24027EA0207224A90423FF426
:103660005CAF02F58062904222D002F58062904207
:1036700020D002F5806290421ED002F58062904216
:103680001CD002F5806290421AD002F5806290420E
:1036900018D002F58062904216D002F58062904206
:1036A00014D002F5806290423FF435AF0A2235E72C
:1036B000012233E7022231E703222FE704222DE71C
:1036C00005222BE7062229E7072227E7082225E71C
:1036D00002B0F0BC7047704700380140003C014028
:1036E000003802400000024012B9090481617047AD
:1036F00081617047436931EA030301D081617047FA
:103700000904816170470000002800F0BE80F8B510
:10371000044690F83D30002B6BD0242384F83D30D4
:103720002268136823F00103136000F0EBFB62686A
:10373000584B9A4262D8584B98428CBF00230123C1
:10374000002B40F0A480554BA3FB00239B0C216869
:103750004A6822F03F021A434A6025682A6A22F02A
:103760003F0266684B498E424ED8013313432B62A9
:103770002568E96921F44F4121F0FF016368454A5A
:1037800093424BD801385B00B0FBF3F30133C3F332
:103790000B03042B38BF04230B43EB6121680B6838
:1037A00023F0C003E269206A024313430B602168DF
:1037B0008B6823F4034323F0FF032269E06802438C
:1037C00013438B602168CB6823F0FF036269A06913
:1037D00002431343CB602268136843F00103136074
:1037E00000202064202384F83D30206384F83E00CC
:1037F000F8BD80F83C3001F0B3FD8EE7284B9842CD
:103800008CBF002301239BE74FF4967101FB03F368
:103810002449A1FB03139B090133A7E7A268BAB9A6
:10382000461E03EB4307B6FBF7F60136C6F30B065D
:10383000B6FA86F6760936BBC2B9013803EB430304
:10384000B0FBF3F30133C3F30B0242F40043A3E7ED
:10385000461E03EB830707EB8707B6FBF7F6013637
:10386000C6F30B06B6FA86F67609E4E7013803EBF1
:10387000830303EB8303B0FBF3F20132C2F30B02C9
:1038800042F4404388E7012386E701207047012086
:10389000AEE700BFA08601007F841E0083DE1B43CD
:1038A000FF083D00D34D621090F83D30DBB2202B75
:1038B0001AD1242380F83D300268136823F00103F5
:1038C00013600268536A23F0100353620268536A5C
:1038D000194351620268136843F001031360202307
:1038E00080F83D30002070470220704790F83D304E
:1038F000DBB2202B19D1242380F83D3002681368F5
:1039000023F0010313600268536A9BB223F00F0394
:10391000194389B251620268136843F001031360CE
:10392000202380F83D3000207047022070470000BF
:10393000002800F0BB8170B582B00446036813F024
:10394000010F3BD0A74B9B6803F00C03042B2CD03A
:10395000A44B9B6803F00C03082B21D06368B3F5DC
:10396000803F4FD0B3F5A02F52D09E4B1A6822F45F
:1039700080321A601A6822F480221A606368002B71
:1039800050D0FFF739FD0546964B1B6813F4003FF6
:1039900014D1FFF731FD401B6428F5D903208AE1DB
:1039A000904B5B6813F4800FD8D08E4B1B6813F4D8
:1039B000003F03D06368002B00F07A81236813F086
:1039C000020F55D0874B9B6813F00C0F3ED0854BF0
:1039D0009B6803F00C03082B33D0E368002B68D0FE
:1039E000814B01221A60FFF707FD05467D4B1B68DE
:1039F00013F0020F54D1FFF7FFFC401B0228F5D94A
:103A0000032058E1774A136843F480331360B5E725
:103A1000744B1A6842F480221A601A6842F48032A9
:103A20001A60ABE7FFF7E8FC05466E4B1B6813F422
:103A3000003FC3D0FFF7E0FC401B6428F5D903200A
:103A400039E1684B5B6813F4800FC6D1654B1B6886
:103A500013F0020F04D0E368012B01D001202AE10A
:103A6000604A136823F0F803216943EAC103136035
:103A7000236813F0080F40D0636963B35B4B0122E6
:103A80001A60FFF7B9FC0546564B5B6F13F0020F47
:103A900033D1FFF7B1FC401B0228F5D903200AE11E
:103AA000504A136823F0F803216943EAC103136005
:103AB000DEE74D4B00221A60FFF79EFC0546494B9E
:103AC0001B6813F0020FD3D0FFF796FC401B0228AF
:103AD000F5D90320EFE0454B00221A60FFF78CFC7C
:103AE0000546404B5B6F13F0020F06D0FFF784FCD6
:103AF000401B0228F5D90320DDE0236813F0040FF2
:103B000079D0384B1B6C13F0805F33D100230193C5
:103B1000344B1A6C42F080521A641B6C03F08053D1
:103B20000193019B0125324B1B6813F4807F23D046
:103B3000A368012B34D0052B38D02A4B1A6F22F002
:103B400001021A671A6F22F004021A67A368002B99
:103B500036D0FFF751FC0646224B1B6F13F0020FC5
:103B600048D1FFF749FC801B41F288339842F3D9D2
:103B70000320A0E00025D6E71D4A136843F48073B4
:103B80001360FFF739FC0646194B1B6813F4807F5E
:103B9000CED1FFF731FC801B0228F5D903208AE043
:103BA000104A136F43F001031367CFE70D4B1A6FF1
:103BB00042F004021A671A6F42F001021A67C5E761
:103BC000FFF71AFC0646074B1B6F13F0020F11D0CC
:103BD000FFF712FC801B41F288339842F3D903208F
:103BE00069E000BF0038024000004742800E4742B3
:103BF00000700040E5B9A369002B5BD0304A9268A1
:103C000002F00C02082A58D0022B17D02D4B0022AC
:103C10001A60FFF7F1FB0446294B1B6813F0007F85
:103C200042D0FFF7E9FB001B0228F5D9032042E050
:103C3000234A136C23F080531364DCE7214B0022EA
:103C40001A60FFF7D9FB05461D4B1B6813F0007F78
:103C500006D0FFF7D1FB401B0228F5D903202AE04C
:103C6000E369226A1343626A43EA8213A26A520832
:103C7000013A43EA0243E26A43EA0263104A5360AC
:103C8000104B01221A60FFF7B7FB04460C4B1B6870
:103C900013F0007F06D1FFF7AFFB001B0228F5D918
:103CA000032008E0002006E0002004E00120704727
:103CB000012000E0002002B070BD0120FBE700BF42
:103CC0000038024060004742324B9B6803F00C030F
:103CD000042B5CD0082B01D02F4870472DE9F04B06
:103CE0002C4B5A6802F03F025B6813F4800F2BD014
:103CF000284B5B68C3F388131E4600275C01002530
:103D0000E41A65EB0705A90141EA9461A001001BD3
:103D100061EB0501CB0043EA5073C400A01943EBEB
:103D200007014B0243EAD0534402204619460023C0
:103D3000FFF706F9174B5B68C3F3014301335B00E0
:103D4000B0FBF3F0BDE8F08B124B5B68C3F3881354
:103D50001E4600275C010025E41A65EB0705A90152
:103D600041EA9461A001001B61EB0501CB0043EA2D
:103D70005073C400A01943EB07018B0243EA905330
:103D80008402204619460023FFF7DAF8D2E70348F9
:103D9000704700BF003802400024F40000127A008F
:103DA000002800F09D8070B504464F4B1B6803F05F
:103DB0000F038B4209D2CBB24B4A1370136803F046
:103DC0000F038B4201D0012070BD236813F0020F56
:103DD00017D013F0040F04D0444A936843F4E0531F
:103DE0009360236813F0080F04D0404A936843F4AB
:103DF000604393603D4A936823F0F003A068034357
:103E000093600D46236813F0010F32D06368012BD5
:103E100021D09A1E012A25D9344A126812F0020FC5
:103E200060D032498A6822F0030213438B60FFF7A7
:103E3000E3FA06462D4B9B6803F00C036268B3EB74
:103E4000820F16D0FFF7D8FA801B41F288339842D0
:103E5000F0D90320B8E7254A126812F4003FE0D1F8
:103E60000120B1E7214A126812F0007FD9D1012068
:103E7000AAE71D4B1B6803F00F03AB4209D9EAB256
:103E8000194B1A701B6803F00F03AB4201D00120DD
:103E90009AE7236813F0040F06D0144A936823F4BA
:103EA000E053E1680B439360236813F0080F07D0D9
:103EB0000E4A936823F46043216943EAC103936087
:103EC000FFF702FF094B9B68C3F30313084AD35C57
:103ED000D840084B18600020FFF744FA002073E731
:103EE0000120704701206FE7003C0240003802408B
:103EF00098A6000828040020014B1868704700BFEE
:103F00002804002008B5FFF7F7FF044B9B68C3F3B4
:103F10008223034AD35CD84008BD00BF003802406A
:103F2000A8A6000808B5FFF7E7FF044B9B68C3F39A
:103F30004233034AD35CD84008BD00BF003802407A
:103F4000A8A600082DE9F84304460268136923F483
:103F50004053C1680B43136183680269134342698C
:103F60001343C2691A430168CB6823F4164323F054
:103F70000C031343CB600268536923F440738169D7
:103F80000B435361C369B3F5004F60D00368B84A6F
:103F9000934200F0148102F58062934200F00F8199
:103FA000FFF7B0FF00EB800000EB80006568AD001C
:103FB000B0FBF5F5AF4FA7FB05356D092E01FFF7F7
:103FC000A1FF00EB800000EB80006568AD00B0FB56
:103FD000F5F9FFF797FF00EB800000EB80006568C4
:103FE000AD00B0FBF5F5A7FB05356D094FF0640892
:103FF00008FB15952D013235A7FB05356D0905F038
:10400000F0053544FFF77EFF00EB800000EB8000F9
:104010006668B600B0FBF6F6FFF774FF00EB8000B1
:1040200000EB800063689B00B0FBF3F0A7FB00305F
:10403000400908FB10684FEA081808F13208A7FB8E
:104040000837C7F3431723682F449F600DE10368C7
:10405000874A93425BD002F58062934257D0FFF7C4
:1040600051FF00EB800000EB800065686D00B0FB45
:10407000F5F5804FA7FB05356D092E01FFF742FFCF
:1040800000EB800000EB800065686D00B0FBF5F987
:10409000FFF738FF00EB800000EB800065686D00E3
:1040A000B0FBF5F5A7FB05356D094FF0640808FB7B
:1040B0001595ED003235A7FB05356D096D0005F44A
:1040C000F8753544FFF71EFF00EB800000EB800021
:1040D00066687600B0FBF6F6FFF714FF00EB800091
:1040E00000EB800063685B00B0FBF3F3A7FB0323E6
:1040F0005B0908FB13684FEAC80808F13208A7FB00
:104100000837C7F3421723682F449F60ADE0FFF7DD
:1041100009FF00EB800000EB800065686D00B0FBDC
:10412000F5F5544FA7FB05356D092E01FFF7FAFE93
:1041300000EB800000EB800065686D00B0FBF5F9D6
:10414000FFF7F0FE00EB800000EB800065686D007B
:10415000B0FBF5F5A7FB05356D094FF0640808FBCA
:104160001595ED003235A7FB05356D096D0005F499
:10417000F8753544FFF7D6FE00EB800000EB8000B9
:1041800066687600B0FBF6F6FFF7CCFE00EB800029
:1041900000EB800063685B00B0FBF3F3A7FB032335
:1041A0005B0908FB13684FEAC80808F13208A7FB4F
:1041B0000837C7F3421723682F449F6055E0FFF785
:1041C000B1FE00EB800000EB80006568AD00B0FB45
:1041D000F5F5284FA7FB05356D092E01FFF7A2FE67
:1041E00000EB800000EB80006568AD00B0FBF5F9E6
:1041F000FFF798FE00EB800000EB80006568AD00E3
:10420000B0FBF5F5A7FB05356D094FF0640808FB19
:1042100015952D013235A7FB05356D0905F0F00523
:104220003544FFF77FFE00EB800000EB80006668FE
:10423000B600B0FBF6F6FFF775FE00EB800000EB72
:10424000800063689B00B0FBF3F0A7FB00304009DF
:1042500008FB10684FEA081808F13208A7FB083776
:10426000C7F3431723682F449F60BDE8F88300BF5E
:10427000001001401F85EB512DE9F04105460F4626
:1042800016469846069C2B681B6837EA03030CBF4A
:1042900001230023B3421DD1B4F1FF3FF3D02CB171
:1042A000FFF7AAF8A0EB0800A042ECD92A68D3686F
:1042B00023F4D073D3602A68536923F00103536158
:1042C000202385F8393085F83A30002385F83830D6
:1042D000032000E00020BDE8F08158B310B504468B
:1042E00090F839300BB3242384F839302268D3682E
:1042F00023F40053D3602046FFF724FE226813699D
:1043000023F4904313612268536923F02A03536115
:104310002268D36843F40053D3600020E063202375
:1043200084F8393084F83A3010BD80F8383001F024
:1043300051F8D8E7012070472DE9F04182B01E46C0
:1043400090F83930DBB2202B55D104460D4690460B
:10435000002955D0002A55D090F83830012B53D081
:10436000012380F838300023C363212380F83930DB
:10437000FFF742F80746A4F82480A4F8268010E04E
:1043800000963B46002280212046FFF775FF00285B
:104390003CD12B882268C3F3080353602369C3B957
:1043A0000235E38C9BB2B3B1E38C013B9BB2E38457
:1043B000A368B3F5805FE3D000963B4600228021DE
:1043C0002046FFF759FF18BB2A7823685A60013549
:1043D000E7E70135E5E700963B460022402120460D
:1043E000FFF74AFF0346A8B9202284F839200022AB
:1043F00084F8382000E00223184602B0BDE8F081BE
:104400000123F9E70123F7E70223F5E70323F3E7A5
:104410000323F1E70323EFE7004870473C760008E9
:104420002DE9F041A0B00F46FBF779FF002F6FD0C8
:10443000054600286ED0384B0193384B0293384B19
:104440000393384B0493FBF704FF0590FBF719FF28
:104450000690354B07934FF003088DF820808DF8B8
:10446000218000268DF822608DF8236001248DF8CC
:1044700024408DF825408DF826608DF82760FBF7E5
:104480001AFF0A90FBF731FF0B9043F64F030C9392
:10449000ADF83440ADF83640ADF83840ADF83A40AC
:1044A0001823ADF83C30ADF83E8010941196ADF86D
:1044B0004840ADF84A40ADF84C40ADF84E400523B9
:1044C0001493159616AC05F124030FCB84E80F0066
:1044D0001AAC05F114030FCB84E80F001E966B682D
:1044E0001F93EB6B43B11E9A01321E929A689A4257
:1044F00002D01346002AF5D17C2201A9384602F0E9
:1045000036F91E98003018BF012020B0BDE8F081B8
:104510000020FAE70020F8E7B0A60008B8A60008D7
:10452000DCA60008F8A6000810A7000808B5FBF7ED
:104530001BFF08BD00B583B0002301930123009346
:10454000024AFBF739FF03B05DF804FB08000020C6
:1045500008B5FBF76FFF08BD38B50D46FBF789FFBF
:10456000002860D0EA68314B996C41F000419964B1
:104570001A655A65996D41F00041996502F5C0616F
:1045800019665966996E41F00041996602F5CC6151
:1045900019675967996F41F00041996702F53B51DE
:1045A0002031C3F88010C3F88410D3F8881041F08C
:1045B0000041C3F8881002F53C511031C3F8901047
:1045C000C3F89410D3F8981041F00041C3F8981044
:1045D00002F54052C3F8A020C3F8A420EA690332D0
:1045E00022F00302816841F4007181600021C3F868
:1045F000B010C3F8B410C3F8C020C3F8C420C3F887
:10460000D020C3F8D42002F5D861C3F8E010C3F875
:10461000E410C3F8F020C3F8F420C3F80021C3F875
:104620000421012038BD0020FCE700BF0800002065
:1046300008B5FBF769FF08BD10B400231C469FEDC9
:104640000B7A00E001338B420CDA00EB8302D2EDEF
:10465000007AF4EEC77AF1EE10FAF3DDDCB2B0EED8
:10466000677AEFE720465DF8044B7047286B6ECE03
:1046700030B42B490B78CA1810710133294A82FBD8
:104680000342921002EB820254001A1BD2B20A704B
:10469000C31EDBB2012B1BD90025012301281AD030
:1046A0000BB11F4B98731E4B987B30BC70471C4C52
:1046B0001C442179814214BF2946691C0DB2013383
:1046C000DBB2092BF3D9072DD4BF00230123E5E783
:1046D00000231D46F5E7D11CC9B211E0124BA3FB24
:1046E0000143DB0803EB83035C000C1B0C4B53FA08
:1046F00084F42379834208BF01352DB20131C9B258
:1047000002F10A039942E9DB054B9B7B2BB9052398
:104710009D42D4BF00230123C2E70223F8E700BF74
:10472000C404002067666666CDCCCCCC002114E0C2
:10473000F7EE007A77EEC07A8A000A4B134493EDC5
:10474000047A67EE877A024492ED007A27EE007AC7
:1047500077EE877AC3ED047A01310429E8DD024857
:10476000704700BFC4040020D404002008B59FEDAA
:10477000050AFFF7DBFF0521FFF75EFFFFF778FF74
:1047800008BD00BFCDCC4C3E01614261CBB110B43D
:104790001C46B5EE400AF1EE10FA01D1B7EE000A60
:1047A000002209E09300E118D1ED007A67EE807AEB
:1047B0000344C3ED007A0132032AF3DD5DF8044BB4
:1047C0007047704710B44469D4ED006A66EE806AA1
:1047D000D0ED007A76EEA76A012318E0990042181E
:1047E000D2ED007A621892ED007A27EE007A77EE29
:1047F000877A02690A4492ED007A27EE267A5A1ED9
:1048000077EEC77A00EB8202C2ED007A0133032B08
:10481000E4DDD4ED047A27EE800A0369D3ED047A4F
:1048200067EEA67A30EE670A80ED030AB0EE660AFC
:104830005DF8044B704700002DE9F0472DED048B27
:10484000B0EE409AF0EE608AB0EE418A07460E461E
:104850001546214B1B68DBB9204CB0EE490A2046B7
:10486000FFF7B0FF87ED000AB0EE680A04F1180008
:10487000FFF7A8FF86ED000AB0EE480A04F1300009
:10488000FFF7A0FF85ED000ABDEC048BBDE8F087C3
:10489000134C04F1100A04F12409DFF84080234688
:1048A000524649464046FFF76FFFB0EE680A23467E
:1048B0005246494608F11800FFF766FFB0EE480A75
:1048C00023465246494608F13000FFF75DFF024B90
:1048D00000221A60C0E700BF00040020E8040020A6
:1048E00060A6000810B52DED048B8EB0044608AA12
:1048F00009A90AA894ED021AD4ED010A94ED000A60
:10490000FFF79AFF94ED009ADDED0A7A39EE679A87
:10491000D4ED018ADDED097A78EEE78A94ED028A1A
:104920009DED080A38EE408A69EE097A28EEA80A59
:1049300077EE807A28EE080A37EE800A01F08EF8CA
:10494000F7EE009A89EE800A29EE009A68EE808AD6
:1049500028EE008A28EE080A39EEC00A01F07EF837
:10496000F1EE484AF1EE688A88EE805AC9EE005AA4
:10497000DDED0A6A26EE857ADDED097A27EEA56A75
:1049800037EE067A38EE298A27EE088A26EEA46AE0
:104990009DED087A27EE254A24EE004A36EE046A99
:1049A00025EE084A36EE046A8DED056A27EEA46A04
:1049B00027EE054A24EE004A36EE446A25EE888A40
:1049C00036EE088A8DED068A27EE247A67EE857A20
:1049D00066EEA56A77EEE67A27EE800A37EE000AE1
:1049E0008DED070A05AB93E807000EAB03E907005E
:1049F0009DED0B0ADDED0C0A9DED0D1A0EB0BDEC20
:104A0000048B10BD10B529B1030AC2B2044801F0ED
:104A1000C1FE10BD020AC1B2024801F0BBFEF8E7B8
:104A200018A7000840A70008F0B589B06B4683E8D6
:104A300003004B4B1B683BB3BDF9003007EE903AC7
:104A4000F8EEE77ACDED057ABDF9023007EE903A3F
:104A5000F8EEE77ACDED067ABDF9043007EE903A2C
:104A6000F8EEE77ACDED077A05A8FFF73BFF8DED6D
:104A7000020ACDED030A8DED041A394B5D682E094B
:104A800005F00F05002407E0364801F0F7FE00208E
:104A900063E0172925D00134012C42D8B442FAD85A
:104AA000331B03F0010205EB0411D3001344D800BB
:104AB0001729EEDC01EB410303445F1C284A02EB9B
:104AC000830CDDF808E0CCF808E0023302EB87073E
:104AD000DDF80CC0C7F808C002EB8303049A9A60A3
:104AE000D7E71F4B03F1080202EB80001E49C860A4
:104AF00003F51272CA6101F110021868FFF798FD00
:104B0000012806D11948FFF731FE174B83F8200022
:104B1000C1E7134B1868FFF709FD1549FFF772FF4E
:104B2000F0E70F4A5368013353600F4B93F820307E
:104B3000042B0CD8DFE803F0030D05070900012062
:104B400008E0042006E0052004E0062002E0002042
:104B500000E00220024B83F85C0209B0F0BD00BF08
:104B60003005002060A7000804040020780700201A
:104B70007CA7000830B58FB0BE4B1B68002B40F0FF
:104B8000A480BD4BFF2283F8202000231A46012178
:104B9000BA4801F0FFFD00240594B94B1A6B42F4AA
:104BA00080521A631B6B03F480530593059BB54831
:104BB00001F064FE2146AF48FFF7BCFC10F0FF0F88
:104BC00040F08980AB4B03F518711868FFF728FC9B
:104BD000002800F09F81AC4801F050FEA54CD4F8AD
:104BE0006012AA4801F0D6FDD4F86412A84801F07A
:104BF000D1FDD4F86812A74801F0CCFDD4F86C12AE
:104C0000A54801F0C7FD94F8742294F8753294F821
:104C100076120091D4F87012A04801F0BBFD94F810
:104C20007C2294F87D3294F87E120091D4F87812A8
:104C30009B4801F0AFFD9B4801F020FED4F8D8124C
:104C4000994801F0A7FDD4F8D412984801F0A2FDCC
:104C5000D4F88C12964801F09DFDB4F8B812B4F85F
:104C6000BA3203FB01F3D4F8BC1201FB03F1914803
:104C700001F090FDB4F8C812B4F8CA3203FB01F396
:104C8000D4F8CC1201FB03F18B4801F083FDB4F89A
:104C90009222B4F89012894801F07CFDB4F8982271
:104CA000B4F89A32D4F89C5203FB02F101FB05F1EF
:104CB000B4F89402B8B1012838D0102838D032287E
:104CC00038D031280DD07E480EE07E4801F0D6FD68
:104CD0004FF0FF30A6E07C49FFF794FE6FF0020032
:104CE000A0E07A4800E07A48029001910095794965
:104CF000794801F04FFD5F49B1F8A822B1F8AA3216
:104D0000D1F8AC4203FB02F000FB04F0B1F8A412AE
:104D1000A1B1012900F08880102900F08780322994
:104D200000F08680312907D0654908E06B48DBE751
:104D30006B48D9E76B48D7E7644900E064490291C2
:104D4000019000946849644801F024FD4949B1F894
:104D5000B822B1F8BA3203FB02F2D1F8BC3203FB3D
:104D600002F340F2F462934264D14249B1F8C8229E
:104D7000B1F8CA3203FB02F2D1F8CC3203FB02F3E2
:104D800043F2140293425CD13A4BD3F89032B3F120
:104D9000011F5DD1384B1B88012B5FD1364B1B8A1D
:104DA000012B5BD1344BDB88032B5DD1324B9B88CD
:104DB000182B40F0A9800023002B40F0BA804B480C
:104DC00001F05CFD48F21003ADF818300124ADF895
:104DD0001A40ADF81C40ADF81E4043F2140308938E
:104DE000FFF71AFB09901023ADF82830ADF82A40E0
:104DF000ADF82C40ADF82E4040F2F4630C931D4BFF
:104E000003F537720D9206A91868FFF7A5FB002875
:104E100000F098800024174B83F85C42344801F07E
:104E20002DFD20460FB030BD2C4988E72C4986E780
:104E30002C4984E711462F4801F0ACFC4FF0FF33BA
:104E4000BAE711462C4801F0A5FC4FF0FF33B3E759
:104E50002A4801F013FD4FF0FF33ADE7284801F079
:104E60000DFD4FF0FF33A7E7264801F007FD4FF097
:104E7000FF33A1E730050020040400202CA800081F
:104E8000003802405CA800088CA80008A8A8000808
:104E9000C4A80008E0A80008FCA8000818A9000899
:104EA00040A9000868A900087CA900089CA900087E
:104EB000B8A90008DCA9000800AA000824AA000874
:104EC000FCA7000804A8000878A80008E8A70008C4
:104ED0008CA7000844AA00085CAA0008A4A7000840
:104EE000BCA70008D0A7000884AA0008D0AB00081F
:104EF00000AC00089CAA0008E0AA000820AB00084B
:104F000050AB00087CAB0008164801F0B7FC4FF02E
:104F1000FF3351E7144C2068FFF708FB1349FFF7F4
:104F200071FD2046FFF714FB002323606FF00300A0
:104F300078E70D4C2046FFF70BFB002323606FF052
:104F400004006FE7084C2068FFF7F0FA0849FFF704
:104F500059FD2046FFF7FCFA002323606FF005009F
:104F600060E700BF9CAB000830050020BCAB000828
:104F7000F0AB000808B500F0A9F908BD70470000C3
:104F80002DE9F04F8DB000240794089409940A94F9
:104F90000B940194674B1A6B42F004021A631A6B6C
:104FA00002F004020192019A02941A6B42F080020C
:104FB0001A631A6B02F080020292029A03941A6B2F
:104FC00042F001021A631A6B02F001020392039A83
:104FD00004941A6B42F002021A631A6B02F0020286
:104FE0000492049A05941A6B42F008021A631A6B31
:104FF00002F008020592059A06941A6B42F04002EC
:105000001A631B6B03F040030693069BDFF834B171
:1050100022464FF481415846FEF766FB464F224632
:1050200040213846FEF760FBDFF81C9122464FF422
:1050300000714846FEF758FB4FF4005ACDF81CA00B
:105040003E4B0893099407A94846FEF75DFA3223C0
:10505000079302260896099403250A954FF00B083A
:10506000CDF82C8007A94846FEF74EFA8623079311
:10507000089609940A95CDF82C8007A93048FEF7C8
:1050800043FACDF81CA0089609940A95CDF82C8017
:1050900007A95846FEF738FA4FF4814307934FF0BB
:1050A000010ACDF820A009940A9407A95846FEF7F2
:1050B0002BFA40230793CDF820A009940A9407A95E
:1050C0003846FEF721FA802307930894099407A92C
:1050D0003846FEF719FA4FF4007BCDF81CB0CDF836
:1050E00020A009940A9407A94846FEF70DFA4FF448
:1050F000E8530793089609940A950A230B9307A986
:105100000F48FEF701FACDF81CB00894099407A9DE
:105110000B48FEF7F9F94FF42053079308960994CA
:105120000A95CDF82C8007A93846FEF7EDF90DB0A9
:10513000BDE8F08F00380240001802400000111056
:1051400000000240000402400008024008B5034885
:10515000034B0360FEF7C6F908BD00BFA80F00208F
:105160000030024038B50D4C0D4B23600D4B636091
:105170000025A560E5604FF4804323616561A5616A
:10518000E56125622046FEF7BFFA29462046FEF774
:105190008BFB29462046FEF7A9FB38BD540F0020A3
:1051A00000540040A086010000B583B002A941F878
:1051B000040D4FF6FF7301220348FFF7BDF8019875
:1051C00003B05DF804FB00BF140F002030B595B0AC
:1051D0003022002108A801F0D5FA00240394049499
:1051E00005940694079401941C4B1A6C42F080526B
:1051F0001A641B6C03F080530193019B0294184BBB
:105200001A6842F440421A601B6803F44043029358
:10521000029B012308934FF4A023099302250E95C6
:105220004FF480030F9304231093A8231193129536
:105230000723139308A8FEF77BFB0F230393049522
:1052400005944FF4A05306934FF480530793052120
:1052500003A8FEF7A5FD15B030BD00BF0038024021
:105260000070004000B583B0FEF7A0F8FFF7AEFF76
:10527000FFF786FEFFF76AFFFFF77CFEFFF772FF7E
:10528000FFF778FC0E4801F085FA0023ADF80030F6
:10529000ADF802300923ADF80430FFF76FFE02AB22
:1052A00013E90300FFF7C0FB0146064801F072FA5C
:1052B00080210548FEF71EFA3220FEF7A3F8ECE73E
:1052C00048AC000858AC00080004024008B5084883
:1052D000084B03604FF4E133436000238360C360F5
:1052E00003610C2242618361C361FEF7F6FF08BDD2
:1052F000140F00200048004082B0002100910B4BA9
:105300005A6C42F480425A645A6C02F48042009211
:10531000009A01911A6C42F080521A641B6C03F0DF
:1053200080530193019B02B0704700BF00380240D8
:105330000268094B9A4200D0704782B00023019363
:10534000064B1A6B42F480521A631B6B03F48053B2
:105350000193019B02B070470030024000380240C8
:1053600030B589B000230393049305930693079304
:105370000268154B9A4201D009B030BD0025019555
:10538000124C236B43F002032363236B03F00203ED
:105390000193019B4FF41073039312230493012391
:1053A0000593032306930423079303A90848FEF7F4
:1053B000ABF80295236C43F400132364236C03F4CD
:1053C00000130293029BD7E70054004000380240CC
:1053D0000004024000B589B00023039304930593B1
:1053E000069307930268164B9A4202D009B05DF803
:1053F00004FB0021019103F5F8331A6C42F480227A
:105400001A641A6C02F480220192019A02911A6BBA
:1054100042F008021A631B6B03F008030293029B1D
:105420004FF4407303930223049301230593032352
:1054300006930723079303A90248FEF765F8D5E70B
:1054400000480040000C02407047FEE7FEE7FEE720
:10545000FEE770477047704708B5FDF7C1FF08BD0C
:1054600070B50D461646002404E0AFF300802870A6
:1054700001340135B442F8DB304670BD70B51646D4
:10548000002405E04D1C0878FFF78EFE0134294604
:10549000B442F7DB304670BD08B503460B4A1268CC
:1054A00042B10A4A106803446A46934206D8074A42
:1054B000136008BD054A06491160F2E701F01EF9C4
:1054C0000C2303604FF0FF30F3E700BF000F002014
:1054D000B80F00204FF0FF3070474FF400534B607F
:1054E0000020704701207047002070470F49D1F815
:1054F000883043F47003C1F888300D4B1A6842F0CD
:1055000001021A60002098601A6822F0847222F466
:1055100080321A60074A5A601A6822F480221A60A0
:10552000D8604FF000638B60704700BF00ED00E073
:105530000038024010300024DFF834D0002103E0AE
:105540000C4B5B58435004310B480C4B42189A42A9
:10555000F6D30B4A02E0002342F8043B094B9A427F
:10556000F9D3FFF7C3FF01F0CFF8FFF77BFE7047D9
:105570000000032044AD0008000000209404002037
:1055800094040020B40F0020FEE7000010B582B0A4
:105590008DED010A019C24F00043B3F1FF4F0DDBB8
:1055A000F7EE007AB0EE407A87EE870A002CACBFA7
:1055B00030EE270A30EE670A02B010BD1E4A934251
:1055C00007DDB7EE000A002CB8BFB1EE400A02B00A
:1055D00010BDB3F1105F13DBB3F17E5F1ADB00F097
:1055E0009FFF30EE000A00F061FEB0EE007A70EE30
:1055F000076AF7EE007A87EE260A37EEC00AE2E77E
:10560000DDED017AB7EE000A37EE800A20EE270AB8
:1056100002B010BD00F084FFF8EE007A20EE270AF9
:1056200000F044FEB0EE007A30EE077AF1EE407AF8
:1056300087EE870AC7E700BFFFFFAF41D0B52DED6A
:10564000028B374C8AB0F0EE408A00F05DFA94F994
:1056500000300133B0EE408A3AD0B0EE680A00F074
:1056600067FF002834D0DFED2F7AF4EEE78AF1EE01
:1056700010FA33DCDFED2C7AF4EEE78AF1EE10FA63
:1056800026D50423294A009318EE900A0023089394
:105690000192FDF79BF994F9003000260027022BB8
:1056A000CDE90401CDE90201CDE9066733D06846B2
:1056B00000F0FAFD00282ED0089B1BB101F01EF867
:1056C000089B0360DDE90601FDF7EAFB08EE100A1E
:1056D000B0EE480A0AB0BDEC028BD0BD0323134ADA
:1056E000009318EE900A002308930192FDF76EF9DB
:1056F00094F90030CDE90401CDE902012BB90C4B3E
:105700004FF06042CDE90623D1E70A490020022B81
:10571000CDE90601CBD100F0F1FF22230360CBE7F6
:105720002C0400208071B142B5F1CFC264AC0008F6
:10573000FFFFEF470000F07F2DE9F0432DED048BD4
:10574000B14D8BB0F0EE408AB0EE608A00F0B6FA50
:1057500095F90040631CB0EE409A30D0B4EE488A10
:10576000F1EE10FA2BD6F4EE688AF1EE10FA67D655
:10577000DFEDA69AF4EE698AF1EE10FA26D1B4EEC6
:10578000698AF1EE10FA40F091800123A04A00935B
:1057900018EE900A002301920893FDF717F9CDE95E
:1057A000020118EE100AFDF711F900220023CDE9DD
:1057B0000401CDE90623002C5FD0B7EE009AB0EECD
:1057C000490A0BB0BDEC048BBDE8F08300F0B0FEDD
:1057D0000446002800F09A80B5EE409AF1EE10FAE7
:1057E000EDD1B0EE680A00F0A3FE0028E7D0B0EEDD
:1057F000480A00F09DFE0028E1D00423844A00936B
:1058000018EE900A002308930192FDF7DFF8CDE926
:10581000020118EE100AFDF7D9F895F900300026BC
:105820000027022BCDE90401CDE9066703D06846C5
:1058300000F03AFD38BB00F061FF2223036022E054
:10584000B5EE408AF1EE10FAB9D10123704A009307
:1058500018EE900A002301920893FDF7B7F8CDE9FE
:10586000020118EE100AFDF7B1F86A4B0022022C73
:10587000CDE90401CDE906239FD0684600F014FD70
:10588000002800F08480089B1BB100F037FF089BC4
:105890000360DDE90601FDF703FB09EE100AB0EE37
:1058A000490A0BB0BDEC048BBDE8F083B0EE480AAA
:1058B00000F03EFE002882D0B5EEC08AF1EE10FA6C
:1058C0007FF57DAF0123524A009318EE900A002322
:1058D00008930192FDF77AF8CDE9020118EE100A5B
:1058E000FDF774F895F90030CDE90401002B53D091
:1058F00049490020022BCDE9060151D100F0FEFEFE
:1059000021230360089B002BC3D0BEE7B0EE680ADA
:1059100000F00EFE00283FF45FAFB0EE480A00F042
:1059200007FE00283FF458AF18EE900AFDF74EF836
:10593000804618EE100A8946FDF748F8B4EE499AF9
:10594000F1EE10FA95F900606ED6F6EE007A0322B9
:105950002F4B08940092CDE90289CDE9040101930F
:1059600028EE278A16BB2D4BF5EEC08A4FF0604219
:10597000F1EE10FACDE9062324D4684600F094FC39
:105980000028BFD100F0BAFE22230360BAE700F07E
:10599000B5FE2123036076E700220023CDE906232C
:1059A000684600F081FC0028ACD1A7E71C4BF5EE5F
:1059B000C08A0022F1EE10FACDE9062313D4022E9C
:1059C000E0D0DAE7B0EE480A00F0C2FDB4EE480AD3
:1059D000F1EE10FA14D0134B95F900604FF06042CD
:1059E000CDE90623EBE7B0EE480A00F0B1FDB4EED6
:1059F000480AF1EE10FA03D0074B0022CDE9062346
:105A000095F90060DBE700BF2C04002000000000D7
:105A10006CAC00080000F03F0000F0FFFFFFEF4714
:105A20000000F07FFFFFEFC701220B4B08940092AC
:105A3000CDE90289CDE904010193002EACD0C9EE75
:105A4000A97A17EE900AFCF7C1FF022ECDE90601F4
:105A50003FF454AFA4E700BF6CAC000810B52DEDC7
:105A6000028B8AB0B0EE408A00F01AFC244B93F906
:105A70000040631C09D0B4EE488AF1EE10FA04D657
:105A8000B5EEC08AF1EE10FA03D40AB0BDEC028B79
:105A900010BD01231B4A009318EE100A0023019247
:105AA0000893FCF793FF0022CDE90401CDE9020140
:105AB0000023BCB110461946FDF70AF9022CCDE9C6
:105AC000060111D100F01AFE21230360089B8BB957
:105AD000DDE90601FDF7E4F900EE100A0AB0BDECBD
